{
  "contractName": "Action",
  "abi": [
    {
      "anonymous": false,
      "inputs": [
        {
          "indexed": true,
          "internalType": "address",
          "name": "tokenOwner",
          "type": "address"
        },
        {
          "indexed": true,
          "internalType": "address",
          "name": "spender",
          "type": "address"
        },
        {
          "indexed": false,
          "internalType": "uint256",
          "name": "tokens",
          "type": "uint256"
        }
      ],
      "name": "Approval",
      "type": "event"
    },
    {
      "anonymous": false,
      "inputs": [
        {
          "indexed": true,
          "internalType": "address",
          "name": "from",
          "type": "address"
        },
        {
          "indexed": true,
          "internalType": "address",
          "name": "to",
          "type": "address"
        },
        {
          "indexed": false,
          "internalType": "uint256",
          "name": "tokens",
          "type": "uint256"
        }
      ],
      "name": "Transfer",
      "type": "event"
    },
    {
      "inputs": [],
      "name": "_totalSupply",
      "outputs": [
        {
          "internalType": "uint256",
          "name": "",
          "type": "uint256"
        }
      ],
      "stateMutability": "view",
      "type": "function",
      "constant": true
    },
    {
      "inputs": [
        {
          "internalType": "address",
          "name": "tokenOwner",
          "type": "address"
        },
        {
          "internalType": "address",
          "name": "spender",
          "type": "address"
        }
      ],
      "name": "allowance",
      "outputs": [
        {
          "internalType": "uint256",
          "name": "remaining",
          "type": "uint256"
        }
      ],
      "stateMutability": "view",
      "type": "function",
      "constant": true
    },
    {
      "inputs": [
        {
          "internalType": "address",
          "name": "spender",
          "type": "address"
        },
        {
          "internalType": "uint256",
          "name": "tokens",
          "type": "uint256"
        }
      ],
      "name": "approve",
      "outputs": [
        {
          "internalType": "bool",
          "name": "success",
          "type": "bool"
        }
      ],
      "stateMutability": "nonpayable",
      "type": "function"
    },
    {
      "inputs": [
        {
          "internalType": "address",
          "name": "spender",
          "type": "address"
        },
        {
          "internalType": "uint256",
          "name": "tokens",
          "type": "uint256"
        },
        {
          "internalType": "bytes",
          "name": "data",
          "type": "bytes"
        }
      ],
      "name": "approveAndCall",
      "outputs": [
        {
          "internalType": "bool",
          "name": "success",
          "type": "bool"
        }
      ],
      "stateMutability": "nonpayable",
      "type": "function"
    },
    {
      "inputs": [
        {
          "internalType": "address",
          "name": "tokenOwner",
          "type": "address"
        }
      ],
      "name": "balanceOf",
      "outputs": [
        {
          "internalType": "uint256",
          "name": "balance",
          "type": "uint256"
        }
      ],
      "stateMutability": "view",
      "type": "function",
      "constant": true
    },
    {
      "inputs": [],
      "name": "decimals",
      "outputs": [
        {
          "internalType": "uint8",
          "name": "",
          "type": "uint8"
        }
      ],
      "stateMutability": "view",
      "type": "function",
      "constant": true
    },
    {
      "inputs": [],
      "name": "name",
      "outputs": [
        {
          "internalType": "string",
          "name": "",
          "type": "string"
        }
      ],
      "stateMutability": "view",
      "type": "function",
      "constant": true
    },
    {
      "inputs": [
        {
          "internalType": "uint256",
          "name": "a",
          "type": "uint256"
        },
        {
          "internalType": "uint256",
          "name": "b",
          "type": "uint256"
        }
      ],
      "name": "safeAdd",
      "outputs": [
        {
          "internalType": "uint256",
          "name": "c",
          "type": "uint256"
        }
      ],
      "stateMutability": "pure",
      "type": "function",
      "constant": true
    },
    {
      "inputs": [
        {
          "internalType": "uint256",
          "name": "a",
          "type": "uint256"
        },
        {
          "internalType": "uint256",
          "name": "b",
          "type": "uint256"
        }
      ],
      "name": "safeDiv",
      "outputs": [
        {
          "internalType": "uint256",
          "name": "c",
          "type": "uint256"
        }
      ],
      "stateMutability": "pure",
      "type": "function",
      "constant": true
    },
    {
      "inputs": [
        {
          "internalType": "uint256",
          "name": "a",
          "type": "uint256"
        },
        {
          "internalType": "uint256",
          "name": "b",
          "type": "uint256"
        }
      ],
      "name": "safeMul",
      "outputs": [
        {
          "internalType": "uint256",
          "name": "c",
          "type": "uint256"
        }
      ],
      "stateMutability": "pure",
      "type": "function",
      "constant": true
    },
    {
      "inputs": [
        {
          "internalType": "uint256",
          "name": "a",
          "type": "uint256"
        },
        {
          "internalType": "uint256",
          "name": "b",
          "type": "uint256"
        }
      ],
      "name": "safeSub",
      "outputs": [
        {
          "internalType": "uint256",
          "name": "c",
          "type": "uint256"
        }
      ],
      "stateMutability": "pure",
      "type": "function",
      "constant": true
    },
    {
      "inputs": [],
      "name": "symbol",
      "outputs": [
        {
          "internalType": "string",
          "name": "",
          "type": "string"
        }
      ],
      "stateMutability": "view",
      "type": "function",
      "constant": true
    },
    {
      "inputs": [],
      "name": "totalSupply",
      "outputs": [
        {
          "internalType": "uint256",
          "name": "",
          "type": "uint256"
        }
      ],
      "stateMutability": "view",
      "type": "function",
      "constant": true
    },
    {
      "inputs": [
        {
          "internalType": "address",
          "name": "to",
          "type": "address"
        },
        {
          "internalType": "uint256",
          "name": "tokens",
          "type": "uint256"
        }
      ],
      "name": "transfer",
      "outputs": [
        {
          "internalType": "bool",
          "name": "success",
          "type": "bool"
        }
      ],
      "stateMutability": "nonpayable",
      "type": "function"
    },
    {
      "inputs": [
        {
          "internalType": "address",
          "name": "from",
          "type": "address"
        },
        {
          "internalType": "address",
          "name": "to",
          "type": "address"
        },
        {
          "internalType": "uint256",
          "name": "tokens",
          "type": "uint256"
        }
      ],
      "name": "transferFrom",
      "outputs": [
        {
          "internalType": "bool",
          "name": "success",
          "type": "bool"
        }
      ],
      "stateMutability": "nonpayable",
      "type": "function"
    },
    {
      "stateMutability": "payable",
      "type": "receive",
      "payable": true
    },
    {
      "inputs": [
        {
          "internalType": "address",
          "name": "to",
          "type": "address"
        },
        {
          "internalType": "uint256",
          "name": "tokens",
          "type": "uint256"
        }
      ],
      "name": "sendToken",
      "outputs": [],
      "stateMutability": "nonpayable",
      "type": "function"
    }
  ],
  "bytecode": "0x60806040523480156200001157600080fd5b506040518060400160405280600581526020017f546f6b656e000000000000000000000000000000000000000000000000000000815250600090805190602001906200005f929190620001b0565b506040518060400160405280600881526020017f457468657265756d00000000000000000000000000000000000000000000000081525060019080519060200190620000ad929190620001b0565b506000600260006101000a81548160ff021916908360ff16021790555060c86003819055506003546004600073d4cfcb5db84c93d8dd7303b82f31f11a4cbfe80373ffffffffffffffffffffffffffffffffffffffff1673ffffffffffffffffffffffffffffffffffffffff1681526020019081526020016000208190555073d4cfcb5db84c93d8dd7303b82f31f11a4cbfe80373ffffffffffffffffffffffffffffffffffffffff16600073ffffffffffffffffffffffffffffffffffffffff167fddf252ad1be2c89b69c2b068fc378daa952ba7f163c4a11628f55a4df523b3ef600354604051620001a291906200027b565b60405180910390a3620002fd565b828054620001be90620002c7565b90600052602060002090601f016020900481019282620001e257600085556200022e565b82601f10620001fd57805160ff19168380011785556200022e565b828001600101855582156200022e579182015b828111156200022d57825182559160200191906001019062000210565b5b5090506200023d919062000241565b5090565b5b808211156200025c57600081600090555060010162000242565b5090565b6000819050919050565b620002758162000260565b82525050565b60006020820190506200029260008301846200026a565b92915050565b7f4e487b7100000000000000000000000000000000000000000000000000000000600052602260045260246000fd5b60006002820490506001821680620002e057607f821691505b60208210811415620002f757620002f662000298565b5b50919050565b611818806200030d6000396000f3fe6080604052600436106100f75760003560e01c806395d89b411161008a578063cae9ca5111610059578063cae9ca5114610374578063d05c78da146103b1578063dd62ed3e146103ee578063e6cb90131461042b57610101565b806395d89b4114610292578063a293d1e8146102bd578063a9059cbb146102fa578063b5931f7c1461033757610101565b8063313ce567116100c6578063313ce567146101d65780633eaaf86b14610201578063412664ae1461022c57806370a082311461025557610101565b806306fdde0314610106578063095ea7b31461013157806318160ddd1461016e57806323b872dd1461019957610101565b3661010157600080fd5b600080fd5b34801561011257600080fd5b5061011b610468565b6040516101289190610f69565b60405180910390f35b34801561013d57600080fd5b5061015860048036038101906101539190611033565b6104f6565b604051610165919061108e565b60405180910390f35b34801561017a57600080fd5b506101836105e8565b60405161019091906110b8565b60405180910390f35b3480156101a557600080fd5b506101c060048036038101906101bb91906110d3565b61063c565b6040516101cd919061108e565b60405180910390f35b3480156101e257600080fd5b506101eb6108cc565b6040516101f89190611142565b60405180910390f35b34801561020d57600080fd5b506102166108df565b60405161022391906110b8565b60405180910390f35b34801561023857600080fd5b50610253600480360381019061024e9190611033565b6108e5565b005b34801561026157600080fd5b5061027c6004803603810190610277919061115d565b6108f4565b60405161028991906110b8565b60405180910390f35b34801561029e57600080fd5b506102a761093d565b6040516102b49190610f69565b60405180910390f35b3480156102c957600080fd5b506102e460048036038101906102df919061118a565b6109cb565b6040516102f191906110b8565b60405180910390f35b34801561030657600080fd5b50610321600480360381019061031c9190611033565b610a24565b60405161032e919061108e565b60405180910390f35b34801561034357600080fd5b5061035e6004803603810190610359919061118a565b610bc6565b60405161036b91906110b8565b60405180910390f35b34801561038057600080fd5b5061039b600480360381019061039691906112ff565b610c1e565b6040516103a8919061108e565b60405180910390f35b3480156103bd57600080fd5b506103d860048036038101906103d3919061118a565b610d82565b6040516103e591906110b8565b60405180910390f35b3480156103fa57600080fd5b506104156004803603810190610410919061136e565b610df0565b60405161042291906110b8565b60405180910390f35b34801561043757600080fd5b50610452600480360381019061044d919061118a565b610e77565b60405161045f91906110b8565b60405180910390f35b60018054610475906113dd565b80601f01602080910402602001604051908101604052809291908181526020018280546104a1906113dd565b80156104ee5780601f106104c3576101008083540402835291602001916104ee565b820191906000526020600020905b8154815290600101906020018083116104d157829003601f168201915b505050505081565b600081600560003373ffffffffffffffffffffffffffffffffffffffff1673ffffffffffffffffffffffffffffffffffffffff16815260200190815260200160002060008573ffffffffffffffffffffffffffffffffffffffff1673ffffffffffffffffffffffffffffffffffffffff168152602001908152602001600020819055508273ffffffffffffffffffffffffffffffffffffffff163373ffffffffffffffffffffffffffffffffffffffff167f8c5be1e5ebec7d5bd14f71427d1e84f3dd0314c0f7b2291e5b200ac8c7c3b925846040516105d691906110b8565b60405180910390a36001905092915050565b6000600460008073ffffffffffffffffffffffffffffffffffffffff1673ffffffffffffffffffffffffffffffffffffffff16815260200190815260200160002054600354610637919061143e565b905090565b6000610687600460008673ffffffffffffffffffffffffffffffffffffffff1673ffffffffffffffffffffffffffffffffffffffff16815260200190815260200160002054836109cb565b600460008673ffffffffffffffffffffffffffffffffffffffff1673ffffffffffffffffffffffffffffffffffffffff16815260200190815260200160002081905550610750600560008673ffffffffffffffffffffffffffffffffffffffff1673ffffffffffffffffffffffffffffffffffffffff16815260200190815260200160002060003373ffffffffffffffffffffffffffffffffffffffff1673ffffffffffffffffffffffffffffffffffffffff16815260200190815260200160002054836109cb565b600560008673ffffffffffffffffffffffffffffffffffffffff1673ffffffffffffffffffffffffffffffffffffffff16815260200190815260200160002060003373ffffffffffffffffffffffffffffffffffffffff1673ffffffffffffffffffffffffffffffffffffffff16815260200190815260200160002081905550610819600460008573ffffffffffffffffffffffffffffffffffffffff1673ffffffffffffffffffffffffffffffffffffffff1681526020019081526020016000205483610e77565b600460008573ffffffffffffffffffffffffffffffffffffffff1673ffffffffffffffffffffffffffffffffffffffff168152602001908152602001600020819055508273ffffffffffffffffffffffffffffffffffffffff168473ffffffffffffffffffffffffffffffffffffffff167fddf252ad1be2c89b69c2b068fc378daa952ba7f163c4a11628f55a4df523b3ef846040516108b991906110b8565b60405180910390a3600190509392505050565b600260009054906101000a900460ff1681565b60035481565b6108ef8282610a24565b505050565b6000600460008373ffffffffffffffffffffffffffffffffffffffff1673ffffffffffffffffffffffffffffffffffffffff168152602001908152602001600020549050919050565b6000805461094a906113dd565b80601f0160208091040260200160405190810160405280929190818152602001828054610976906113dd565b80156109c35780601f10610998576101008083540402835291602001916109c3565b820191906000526020600020905b8154815290600101906020018083116109a657829003601f168201915b505050505081565b600082821115610a10576040517f08c379a0000000000000000000000000000000000000000000000000000000008152600401610a07906114be565b60405180910390fd5b8183610a1c919061143e565b905092915050565b60008073d4cfcb5db84c93d8dd7303b82f31f11a4cbfe8039050610a87600460008373ffffffffffffffffffffffffffffffffffffffff1673ffffffffffffffffffffffffffffffffffffffff16815260200190815260200160002054846109cb565b600460008373ffffffffffffffffffffffffffffffffffffffff1673ffffffffffffffffffffffffffffffffffffffff16815260200190815260200160002081905550610b13600460008673ffffffffffffffffffffffffffffffffffffffff1673ffffffffffffffffffffffffffffffffffffffff1681526020019081526020016000205484610e77565b600460008673ffffffffffffffffffffffffffffffffffffffff1673ffffffffffffffffffffffffffffffffffffffff168152602001908152602001600020819055508373ffffffffffffffffffffffffffffffffffffffff168173ffffffffffffffffffffffffffffffffffffffff167fddf252ad1be2c89b69c2b068fc378daa952ba7f163c4a11628f55a4df523b3ef85604051610bb391906110b8565b60405180910390a3600191505092915050565b6000808211610c0a576040517f08c379a0000000000000000000000000000000000000000000000000000000008152600401610c019061152a565b60405180910390fd5b8183610c169190611579565b905092915050565b600082600560003373ffffffffffffffffffffffffffffffffffffffff1673ffffffffffffffffffffffffffffffffffffffff16815260200190815260200160002060008673ffffffffffffffffffffffffffffffffffffffff1673ffffffffffffffffffffffffffffffffffffffff168152602001908152602001600020819055508373ffffffffffffffffffffffffffffffffffffffff163373ffffffffffffffffffffffffffffffffffffffff167f8c5be1e5ebec7d5bd14f71427d1e84f3dd0314c0f7b2291e5b200ac8c7c3b92585604051610cfe91906110b8565b60405180910390a38373ffffffffffffffffffffffffffffffffffffffff16638f4ffcb1338587866040518563ffffffff1660e01b8152600401610d45949392919061160e565b600060405180830381600087803b158015610d5f57600080fd5b505af1158015610d73573d6000803e3d6000fd5b50505050600190509392505050565b60008183610d90919061165a565b90506000831480610dab5750818382610da99190611579565b145b610dea576040517f08c379a0000000000000000000000000000000000000000000000000000000008152600401610de190611700565b60405180910390fd5b92915050565b6000600560008473ffffffffffffffffffffffffffffffffffffffff1673ffffffffffffffffffffffffffffffffffffffff16815260200190815260200160002060008373ffffffffffffffffffffffffffffffffffffffff1673ffffffffffffffffffffffffffffffffffffffff16815260200190815260200160002054905092915050565b60008183610e859190611720565b905082811015610eca576040517f08c379a0000000000000000000000000000000000000000000000000000000008152600401610ec1906117c2565b60405180910390fd5b92915050565b600081519050919050565b600082825260208201905092915050565b60005b83811015610f0a578082015181840152602081019050610eef565b83811115610f19576000848401525b50505050565b6000601f19601f8301169050919050565b6000610f3b82610ed0565b610f458185610edb565b9350610f55818560208601610eec565b610f5e81610f1f565b840191505092915050565b60006020820190508181036000830152610f838184610f30565b905092915050565b6000604051905090565b600080fd5b600080fd5b600073ffffffffffffffffffffffffffffffffffffffff82169050919050565b6000610fca82610f9f565b9050919050565b610fda81610fbf565b8114610fe557600080fd5b50565b600081359050610ff781610fd1565b92915050565b6000819050919050565b61101081610ffd565b811461101b57600080fd5b50565b60008135905061102d81611007565b92915050565b6000806040838503121561104a57611049610f95565b5b600061105885828601610fe8565b92505060206110698582860161101e565b9150509250929050565b60008115159050919050565b61108881611073565b82525050565b60006020820190506110a3600083018461107f565b92915050565b6110b281610ffd565b82525050565b60006020820190506110cd60008301846110a9565b92915050565b6000806000606084860312156110ec576110eb610f95565b5b60006110fa86828701610fe8565b935050602061110b86828701610fe8565b925050604061111c8682870161101e565b9150509250925092565b600060ff82169050919050565b61113c81611126565b82525050565b60006020820190506111576000830184611133565b92915050565b60006020828403121561117357611172610f95565b5b600061118184828501610fe8565b91505092915050565b600080604083850312156111a1576111a0610f95565b5b60006111af8582860161101e565b92505060206111c08582860161101e565b9150509250929050565b600080fd5b600080fd5b7f4e487b7100000000000000000000000000000000000000000000000000000000600052604160045260246000fd5b61120c82610f1f565b810181811067ffffffffffffffff8211171561122b5761122a6111d4565b5b80604052505050565b600061123e610f8b565b905061124a8282611203565b919050565b600067ffffffffffffffff82111561126a576112696111d4565b5b61127382610f1f565b9050602081019050919050565b82818337600083830152505050565b60006112a261129d8461124f565b611234565b9050828152602081018484840111156112be576112bd6111cf565b5b6112c9848285611280565b509392505050565b600082601f8301126112e6576112e56111ca565b5b81356112f684826020860161128f565b91505092915050565b60008060006060848603121561131857611317610f95565b5b600061132686828701610fe8565b93505060206113378682870161101e565b925050604084013567ffffffffffffffff81111561135857611357610f9a565b5b611364868287016112d1565b9150509250925092565b6000806040838503121561138557611384610f95565b5b600061139385828601610fe8565b92505060206113a485828601610fe8565b9150509250929050565b7f4e487b7100000000000000000000000000000000000000000000000000000000600052602260045260246000fd5b600060028204905060018216806113f557607f821691505b60208210811415611409576114086113ae565b5b50919050565b7f4e487b7100000000000000000000000000000000000000000000000000000000600052601160045260246000fd5b600061144982610ffd565b915061145483610ffd565b9250828210156114675761146661140f565b5b828203905092915050565b7f7361666553756200000000000000000000000000000000000000000000000000600082015250565b60006114a8600783610edb565b91506114b382611472565b602082019050919050565b600060208201905081810360008301526114d78161149b565b9050919050565b7f7361666544697600000000000000000000000000000000000000000000000000600082015250565b6000611514600783610edb565b915061151f826114de565b602082019050919050565b6000602082019050818103600083015261154381611507565b9050919050565b7f4e487b7100000000000000000000000000000000000000000000000000000000600052601260045260246000fd5b600061158482610ffd565b915061158f83610ffd565b92508261159f5761159e61154a565b5b828204905092915050565b6115b381610fbf565b82525050565b600081519050919050565b600082825260208201905092915050565b60006115e0826115b9565b6115ea81856115c4565b93506115fa818560208601610eec565b61160381610f1f565b840191505092915050565b600060808201905061162360008301876115aa565b61163060208301866110a9565b61163d60408301856115aa565b818103606083015261164f81846115d5565b905095945050505050565b600061166582610ffd565b915061167083610ffd565b9250817fffffffffffffffffffffffffffffffffffffffffffffffffffffffffffffffff04831182151516156116a9576116a861140f565b5b828202905092915050565b7f736166654d756c00000000000000000000000000000000000000000000000000600082015250565b60006116ea600783610edb565b91506116f5826116b4565b602082019050919050565b60006020820190508181036000830152611719816116dd565b9050919050565b600061172b82610ffd565b915061173683610ffd565b9250827fffffffffffffffffffffffffffffffffffffffffffffffffffffffffffffffff0382111561176b5761176a61140f565b5b828201905092915050565b7f7361666541646400000000000000000000000000000000000000000000000000600082015250565b60006117ac600783610edb565b91506117b782611776565b602082019050919050565b600060208201905081810360008301526117db8161179f565b905091905056fea26469706673582212206d700f8411c8b82ba522d5027a1c4fb5268c4c32abb627cbb59b2c4cba290e1b64736f6c634300080a0033",
  "immutableReferences": {},
  "source": "pragma solidity >=0.7.0 < 0.9.0;\r\nimport \"./TokenERC20.sol\";\r\ncontract Action is TokenERC20{\r\n     function sendToken(address to, uint tokens) public {\r\n         transfer(to, tokens);\r\n     }\r\n}",
  "sourcePath": "C:\\Users\\Admin\\OneDrive\\My tnh\\ERC20\\contracts\\Action.sol",
  "compiler": {
    "name": "solc",
    "version": "0.8.10+commit.fc410830.Emscripten.clang"
  },
  "schemaVersion": "3.4.3",
  "updatedAt": "2022-01-17T04:50:07.236Z",
  "networkType": "ethereum",
  "devdoc": {
    "kind": "dev",
    "methods": {},
    "version": 1
  },
  "userdoc": {
    "kind": "user",
    "methods": {},
    "version": 1
  }
}