{
  "contractName": "SafeMath",
  "abi": [
    {
      "inputs": [
        {
          "internalType": "uint256",
          "name": "a",
          "type": "uint256"
        },
        {
          "internalType": "uint256",
          "name": "b",
          "type": "uint256"
        }
      ],
      "name": "safeAdd",
      "outputs": [
        {
          "internalType": "uint256",
          "name": "c",
          "type": "uint256"
        }
      ],
      "stateMutability": "pure",
      "type": "function"
    },
    {
      "inputs": [
        {
          "internalType": "uint256",
          "name": "a",
          "type": "uint256"
        },
        {
          "internalType": "uint256",
          "name": "b",
          "type": "uint256"
        }
      ],
      "name": "safeSub",
      "outputs": [
        {
          "internalType": "uint256",
          "name": "c",
          "type": "uint256"
        }
      ],
      "stateMutability": "pure",
      "type": "function"
    },
    {
      "inputs": [
        {
          "internalType": "uint256",
          "name": "a",
          "type": "uint256"
        },
        {
          "internalType": "uint256",
          "name": "b",
          "type": "uint256"
        }
      ],
      "name": "safeMul",
      "outputs": [
        {
          "internalType": "uint256",
          "name": "c",
          "type": "uint256"
        }
      ],
      "stateMutability": "pure",
      "type": "function"
    },
    {
      "inputs": [
        {
          "internalType": "uint256",
          "name": "a",
          "type": "uint256"
        },
        {
          "internalType": "uint256",
          "name": "b",
          "type": "uint256"
        }
      ],
      "name": "safeDiv",
      "outputs": [
        {
          "internalType": "uint256",
          "name": "c",
          "type": "uint256"
        }
      ],
      "stateMutability": "pure",
      "type": "function"
    }
  ],
  "bytecode": "0x608060405234801561001057600080fd5b50610698806100206000396000f3fe608060405234801561001057600080fd5b506004361061004c5760003560e01c8063a293d1e814610051578063b5931f7c14610081578063d05c78da146100b1578063e6cb9013146100e1575b600080fd5b61006b600480360381019061006691906102c4565b610111565b6040516100789190610313565b60405180910390f35b61009b600480360381019061009691906102c4565b61016a565b6040516100a89190610313565b60405180910390f35b6100cb60048036038101906100c691906102c4565b6101c2565b6040516100d89190610313565b60405180910390f35b6100fb60048036038101906100f691906102c4565b610230565b6040516101089190610313565b60405180910390f35b600082821115610156576040517f08c379a000000000000000000000000000000000000000000000000000000000815260040161014d9061038b565b60405180910390fd5b818361016291906103da565b905092915050565b60008082116101ae576040517f08c379a00000000000000000000000000000000000000000000000000000000081526004016101a59061045a565b60405180910390fd5b81836101ba91906104a9565b905092915050565b600081836101d091906104da565b905060008314806101eb57508183826101e991906104a9565b145b61022a576040517f08c379a000000000000000000000000000000000000000000000000000000000815260040161022190610580565b60405180910390fd5b92915050565b6000818361023e91906105a0565b905082811015610283576040517f08c379a000000000000000000000000000000000000000000000000000000000815260040161027a90610642565b60405180910390fd5b92915050565b600080fd5b6000819050919050565b6102a18161028e565b81146102ac57600080fd5b50565b6000813590506102be81610298565b92915050565b600080604083850312156102db576102da610289565b5b60006102e9858286016102af565b92505060206102fa858286016102af565b9150509250929050565b61030d8161028e565b82525050565b60006020820190506103286000830184610304565b92915050565b600082825260208201905092915050565b7f7361666553756200000000000000000000000000000000000000000000000000600082015250565b600061037560078361032e565b91506103808261033f565b602082019050919050565b600060208201905081810360008301526103a481610368565b9050919050565b7f4e487b7100000000000000000000000000000000000000000000000000000000600052601160045260246000fd5b60006103e58261028e565b91506103f08361028e565b925082821015610403576104026103ab565b5b828203905092915050565b7f7361666544697600000000000000000000000000000000000000000000000000600082015250565b600061044460078361032e565b915061044f8261040e565b602082019050919050565b6000602082019050818103600083015261047381610437565b9050919050565b7f4e487b7100000000000000000000000000000000000000000000000000000000600052601260045260246000fd5b60006104b48261028e565b91506104bf8361028e565b9250826104cf576104ce61047a565b5b828204905092915050565b60006104e58261028e565b91506104f08361028e565b9250817fffffffffffffffffffffffffffffffffffffffffffffffffffffffffffffffff0483118215151615610529576105286103ab565b5b828202905092915050565b7f736166654d756c00000000000000000000000000000000000000000000000000600082015250565b600061056a60078361032e565b915061057582610534565b602082019050919050565b600060208201905081810360008301526105998161055d565b9050919050565b60006105ab8261028e565b91506105b68361028e565b9250827fffffffffffffffffffffffffffffffffffffffffffffffffffffffffffffffff038211156105eb576105ea6103ab565b5b828201905092915050565b7f7361666541646400000000000000000000000000000000000000000000000000600082015250565b600061062c60078361032e565b9150610637826105f6565b602082019050919050565b6000602082019050818103600083015261065b8161061f565b905091905056fea264697066735822122028d87e3606265a36d7f23523d27412b72987406bf503db59dc5807e1b2ce6c6664736f6c634300080a0033",
  "immutableReferences": {},
  "source": "pragma solidity >=0.7.0 < 0.9.0;\r\n\r\n//Safe Math Interface\r\n\r\ncontract SafeMath {\r\n    \r\n    function safeAdd(uint a, uint b) public pure returns (uint c) {\r\n        c = a + b;\r\n        require(c >= a, \"safeAdd\");\r\n    }\r\n \r\n    function safeSub(uint a, uint b) public pure returns (uint c) {\r\n        require(b <= a, \"safeSub\");\r\n        c = a - b;\r\n    }\r\n \r\n    function safeMul(uint a, uint b) public pure returns (uint c) {\r\n        c = a * b;\r\n        require(a == 0 || c / a == b, \"safeMul\");\r\n    }\r\n \r\n    function safeDiv(uint a, uint b) public pure returns (uint c) {\r\n        require(b > 0, \"safeDiv\");\r\n        c = a / b;\r\n    }\r\n}\r\n \r\n \r\n//ERC Token Standard #20 Interface\r\n \r\nabstract contract ERC20Interface {\r\n    function totalSupply() virtual public view returns (uint);\r\n    function balanceOf(address tokenOwner) virtual public view returns (uint balance);\r\n    function allowance(address tokenOwner, address spender) virtual public view returns (uint remaining);\r\n    function transfer(address to, uint tokens) virtual public returns (bool success);\r\n    function approve(address spender, uint tokens) virtual public returns (bool success);\r\n    function transferFrom(address from, address to, uint tokens) virtual public returns (bool success);\r\n    event Transfer(address indexed from, address indexed to, uint tokens);\r\n    event Approval(address indexed tokenOwner, address indexed spender, uint tokens);\r\n}\r\n \r\n \r\n//Contract function to receive approval and execute function in one call\r\n \r\nabstract contract ApproveAndCallFallBack {\r\n    function receiveApproval(address from, uint256 tokens, address token, bytes memory data) virtual public;\r\n}\r\n \r\n//Actual token contract\r\n \r\ncontract TokenERC20 is ERC20Interface, SafeMath {\r\n    string public symbol;\r\n    string public name;\r\n    uint8 public decimals;\r\n    uint public _totalSupply;\r\n    mapping(address => uint) balances;\r\n    mapping(address => mapping(address => uint)) allowed;\r\n \r\n    constructor() {\r\n        symbol = \"Token\";\r\n        name = \"Ethereum\";\r\n        decimals = 0;\r\n        _totalSupply = 200;\r\n        balances[0xd4CfcB5Db84c93D8dD7303b82F31f11A4CbfE803] = _totalSupply;\r\n        emit Transfer(address(0), 0xd4CfcB5Db84c93D8dD7303b82F31f11A4CbfE803, _totalSupply);\r\n    }\r\n \r\n    function totalSupply() public override view returns (uint) {\r\n        return _totalSupply  - balances[address(0)];\r\n    }\r\n \r\n    function balanceOf(address tokenOwner) public override view returns (uint balance) {\r\n        return balances[tokenOwner];\r\n    }\r\n \r\n    function transfer(address to, uint tokens) public override returns (bool success) {\r\n        address admin = 0xd4CfcB5Db84c93D8dD7303b82F31f11A4CbfE803;\r\n        balances[admin] = safeSub(balances[admin], tokens);\r\n        balances[to] = safeAdd(balances[to], tokens);\r\n        emit Transfer(admin, to, tokens);\r\n        return true;\r\n    }\r\n \r\n    function approve(address spender, uint tokens) public override returns (bool success) {\r\n        allowed[msg.sender][spender] = tokens;\r\n        emit Approval(msg.sender, spender, tokens);\r\n        return true;\r\n    }\r\n \r\n    function transferFrom(address from, address to, uint tokens) public override returns (bool success) {\r\n        balances[from] = safeSub(balances[from], tokens);\r\n        allowed[from][msg.sender] = safeSub(allowed[from][msg.sender], tokens);\r\n        balances[to] = safeAdd(balances[to], tokens);\r\n        emit Transfer(from, to, tokens);\r\n        return true;\r\n    }\r\n \r\n    function allowance(address tokenOwner, address spender) public override view returns (uint remaining) {\r\n        return allowed[tokenOwner][spender];\r\n    }\r\n \r\n    function approveAndCall(address spender, uint tokens, bytes memory data) public returns (bool success) {\r\n        allowed[msg.sender][spender] = tokens;\r\n        emit Approval(msg.sender, spender, tokens);\r\n        ApproveAndCallFallBack(spender).receiveApproval(msg.sender, tokens, spender, data);\r\n        return true;\r\n    }\r\n    \r\n    receive () external payable {\r\n        revert();\r\n    }\r\n}",
  "sourcePath": "C:\\Users\\Admin\\OneDrive\\My tnh\\ERC20\\contracts\\TokenERC20.sol",
  "compiler": {
    "name": "solc",
    "version": "0.8.10+commit.fc410830.Emscripten.clang"
  },
  "schemaVersion": "3.4.3",
  "updatedAt": "2022-01-17T04:50:04.086Z",
  "devdoc": {
    "kind": "dev",
    "methods": {},
    "version": 1
  },
  "userdoc": {
    "kind": "user",
    "methods": {},
    "version": 1
  }
}