{
  "contractName": "TokenERC20",
  "abi": [
    {
      "inputs": [],
      "stateMutability": "nonpayable",
      "type": "constructor"
    },
    {
      "anonymous": false,
      "inputs": [
        {
          "indexed": true,
          "internalType": "address",
          "name": "tokenOwner",
          "type": "address"
        },
        {
          "indexed": true,
          "internalType": "address",
          "name": "spender",
          "type": "address"
        },
        {
          "indexed": false,
          "internalType": "uint256",
          "name": "tokens",
          "type": "uint256"
        }
      ],
      "name": "Approval",
      "type": "event"
    },
    {
      "anonymous": false,
      "inputs": [
        {
          "indexed": true,
          "internalType": "address",
          "name": "from",
          "type": "address"
        },
        {
          "indexed": true,
          "internalType": "address",
          "name": "to",
          "type": "address"
        },
        {
          "indexed": false,
          "internalType": "uint256",
          "name": "tokens",
          "type": "uint256"
        }
      ],
      "name": "Transfer",
      "type": "event"
    },
    {
      "inputs": [],
      "name": "_totalSupply",
      "outputs": [
        {
          "internalType": "uint256",
          "name": "",
          "type": "uint256"
        }
      ],
      "stateMutability": "view",
      "type": "function"
    },
    {
      "inputs": [],
      "name": "decimals",
      "outputs": [
        {
          "internalType": "uint8",
          "name": "",
          "type": "uint8"
        }
      ],
      "stateMutability": "view",
      "type": "function"
    },
    {
      "inputs": [],
      "name": "name",
      "outputs": [
        {
          "internalType": "string",
          "name": "",
          "type": "string"
        }
      ],
      "stateMutability": "view",
      "type": "function"
    },
    {
      "inputs": [
        {
          "internalType": "uint256",
          "name": "a",
          "type": "uint256"
        },
        {
          "internalType": "uint256",
          "name": "b",
          "type": "uint256"
        }
      ],
      "name": "safeAdd",
      "outputs": [
        {
          "internalType": "uint256",
          "name": "c",
          "type": "uint256"
        }
      ],
      "stateMutability": "pure",
      "type": "function"
    },
    {
      "inputs": [
        {
          "internalType": "uint256",
          "name": "a",
          "type": "uint256"
        },
        {
          "internalType": "uint256",
          "name": "b",
          "type": "uint256"
        }
      ],
      "name": "safeDiv",
      "outputs": [
        {
          "internalType": "uint256",
          "name": "c",
          "type": "uint256"
        }
      ],
      "stateMutability": "pure",
      "type": "function"
    },
    {
      "inputs": [
        {
          "internalType": "uint256",
          "name": "a",
          "type": "uint256"
        },
        {
          "internalType": "uint256",
          "name": "b",
          "type": "uint256"
        }
      ],
      "name": "safeMul",
      "outputs": [
        {
          "internalType": "uint256",
          "name": "c",
          "type": "uint256"
        }
      ],
      "stateMutability": "pure",
      "type": "function"
    },
    {
      "inputs": [
        {
          "internalType": "uint256",
          "name": "a",
          "type": "uint256"
        },
        {
          "internalType": "uint256",
          "name": "b",
          "type": "uint256"
        }
      ],
      "name": "safeSub",
      "outputs": [
        {
          "internalType": "uint256",
          "name": "c",
          "type": "uint256"
        }
      ],
      "stateMutability": "pure",
      "type": "function"
    },
    {
      "inputs": [],
      "name": "symbol",
      "outputs": [
        {
          "internalType": "string",
          "name": "",
          "type": "string"
        }
      ],
      "stateMutability": "view",
      "type": "function"
    },
    {
      "stateMutability": "payable",
      "type": "receive"
    },
    {
      "inputs": [],
      "name": "totalSupply",
      "outputs": [
        {
          "internalType": "uint256",
          "name": "",
          "type": "uint256"
        }
      ],
      "stateMutability": "view",
      "type": "function"
    },
    {
      "inputs": [
        {
          "internalType": "address",
          "name": "tokenOwner",
          "type": "address"
        }
      ],
      "name": "balanceOf",
      "outputs": [
        {
          "internalType": "uint256",
          "name": "balance",
          "type": "uint256"
        }
      ],
      "stateMutability": "view",
      "type": "function"
    },
    {
      "inputs": [
        {
          "internalType": "address",
          "name": "to",
          "type": "address"
        },
        {
          "internalType": "uint256",
          "name": "tokens",
          "type": "uint256"
        }
      ],
      "name": "transfer",
      "outputs": [
        {
          "internalType": "bool",
          "name": "success",
          "type": "bool"
        }
      ],
      "stateMutability": "nonpayable",
      "type": "function"
    },
    {
      "inputs": [
        {
          "internalType": "address",
          "name": "spender",
          "type": "address"
        },
        {
          "internalType": "uint256",
          "name": "tokens",
          "type": "uint256"
        }
      ],
      "name": "approve",
      "outputs": [
        {
          "internalType": "bool",
          "name": "success",
          "type": "bool"
        }
      ],
      "stateMutability": "nonpayable",
      "type": "function"
    },
    {
      "inputs": [
        {
          "internalType": "address",
          "name": "from",
          "type": "address"
        },
        {
          "internalType": "address",
          "name": "to",
          "type": "address"
        },
        {
          "internalType": "uint256",
          "name": "tokens",
          "type": "uint256"
        }
      ],
      "name": "transferFrom",
      "outputs": [
        {
          "internalType": "bool",
          "name": "success",
          "type": "bool"
        }
      ],
      "stateMutability": "nonpayable",
      "type": "function"
    },
    {
      "inputs": [
        {
          "internalType": "address",
          "name": "tokenOwner",
          "type": "address"
        },
        {
          "internalType": "address",
          "name": "spender",
          "type": "address"
        }
      ],
      "name": "allowance",
      "outputs": [
        {
          "internalType": "uint256",
          "name": "remaining",
          "type": "uint256"
        }
      ],
      "stateMutability": "view",
      "type": "function"
    },
    {
      "inputs": [
        {
          "internalType": "address",
          "name": "spender",
          "type": "address"
        },
        {
          "internalType": "uint256",
          "name": "tokens",
          "type": "uint256"
        },
        {
          "internalType": "bytes",
          "name": "data",
          "type": "bytes"
        }
      ],
      "name": "approveAndCall",
      "outputs": [
        {
          "internalType": "bool",
          "name": "success",
          "type": "bool"
        }
      ],
      "stateMutability": "nonpayable",
      "type": "function"
    }
  ],
  "bytecode": "0x60806040523480156200001157600080fd5b506040518060400160405280600581526020017f546f6b656e000000000000000000000000000000000000000000000000000000815250600090805190602001906200005f929190620001b0565b506040518060400160405280600881526020017f457468657265756d00000000000000000000000000000000000000000000000081525060019080519060200190620000ad929190620001b0565b506000600260006101000a81548160ff021916908360ff16021790555060c86003819055506003546004600073d4cfcb5db84c93d8dd7303b82f31f11a4cbfe80373ffffffffffffffffffffffffffffffffffffffff1673ffffffffffffffffffffffffffffffffffffffff1681526020019081526020016000208190555073d4cfcb5db84c93d8dd7303b82f31f11a4cbfe80373ffffffffffffffffffffffffffffffffffffffff16600073ffffffffffffffffffffffffffffffffffffffff167fddf252ad1be2c89b69c2b068fc378daa952ba7f163c4a11628f55a4df523b3ef600354604051620001a291906200027b565b60405180910390a3620002fd565b828054620001be90620002c7565b90600052602060002090601f016020900481019282620001e257600085556200022e565b82601f10620001fd57805160ff19168380011785556200022e565b828001600101855582156200022e579182015b828111156200022d57825182559160200191906001019062000210565b5b5090506200023d919062000241565b5090565b5b808211156200025c57600081600090555060010162000242565b5090565b6000819050919050565b620002758162000260565b82525050565b60006020820190506200029260008301846200026a565b92915050565b7f4e487b7100000000000000000000000000000000000000000000000000000000600052602260045260246000fd5b60006002820490506001821680620002e057607f821691505b60208210811415620002f757620002f662000298565b5b50919050565b6117d5806200030d6000396000f3fe6080604052600436106100ec5760003560e01c806395d89b411161008a578063cae9ca5111610059578063cae9ca5114610340578063d05c78da1461037d578063dd62ed3e146103ba578063e6cb9013146103f7576100f6565b806395d89b411461025e578063a293d1e814610289578063a9059cbb146102c6578063b5931f7c14610303576100f6565b806323b872dd116100c657806323b872dd1461018e578063313ce567146101cb5780633eaaf86b146101f657806370a0823114610221576100f6565b806306fdde03146100fb578063095ea7b31461012657806318160ddd14610163576100f6565b366100f657600080fd5b600080fd5b34801561010757600080fd5b50610110610434565b60405161011d9190610f26565b60405180910390f35b34801561013257600080fd5b5061014d60048036038101906101489190610ff0565b6104c2565b60405161015a919061104b565b60405180910390f35b34801561016f57600080fd5b506101786105b4565b6040516101859190611075565b60405180910390f35b34801561019a57600080fd5b506101b560048036038101906101b09190611090565b610608565b6040516101c2919061104b565b60405180910390f35b3480156101d757600080fd5b506101e0610898565b6040516101ed91906110ff565b60405180910390f35b34801561020257600080fd5b5061020b6108ab565b6040516102189190611075565b60405180910390f35b34801561022d57600080fd5b506102486004803603810190610243919061111a565b6108b1565b6040516102559190611075565b60405180910390f35b34801561026a57600080fd5b506102736108fa565b6040516102809190610f26565b60405180910390f35b34801561029557600080fd5b506102b060048036038101906102ab9190611147565b610988565b6040516102bd9190611075565b60405180910390f35b3480156102d257600080fd5b506102ed60048036038101906102e89190610ff0565b6109e1565b6040516102fa919061104b565b60405180910390f35b34801561030f57600080fd5b5061032a60048036038101906103259190611147565b610b83565b6040516103379190611075565b60405180910390f35b34801561034c57600080fd5b50610367600480360381019061036291906112bc565b610bdb565b604051610374919061104b565b60405180910390f35b34801561038957600080fd5b506103a4600480360381019061039f9190611147565b610d3f565b6040516103b19190611075565b60405180910390f35b3480156103c657600080fd5b506103e160048036038101906103dc919061132b565b610dad565b6040516103ee9190611075565b60405180910390f35b34801561040357600080fd5b5061041e60048036038101906104199190611147565b610e34565b60405161042b9190611075565b60405180910390f35b600180546104419061139a565b80601f016020809104026020016040519081016040528092919081815260200182805461046d9061139a565b80156104ba5780601f1061048f576101008083540402835291602001916104ba565b820191906000526020600020905b81548152906001019060200180831161049d57829003601f168201915b505050505081565b600081600560003373ffffffffffffffffffffffffffffffffffffffff1673ffffffffffffffffffffffffffffffffffffffff16815260200190815260200160002060008573ffffffffffffffffffffffffffffffffffffffff1673ffffffffffffffffffffffffffffffffffffffff168152602001908152602001600020819055508273ffffffffffffffffffffffffffffffffffffffff163373ffffffffffffffffffffffffffffffffffffffff167f8c5be1e5ebec7d5bd14f71427d1e84f3dd0314c0f7b2291e5b200ac8c7c3b925846040516105a29190611075565b60405180910390a36001905092915050565b6000600460008073ffffffffffffffffffffffffffffffffffffffff1673ffffffffffffffffffffffffffffffffffffffff1681526020019081526020016000205460035461060391906113fb565b905090565b6000610653600460008673ffffffffffffffffffffffffffffffffffffffff1673ffffffffffffffffffffffffffffffffffffffff1681526020019081526020016000205483610988565b600460008673ffffffffffffffffffffffffffffffffffffffff1673ffffffffffffffffffffffffffffffffffffffff1681526020019081526020016000208190555061071c600560008673ffffffffffffffffffffffffffffffffffffffff1673ffffffffffffffffffffffffffffffffffffffff16815260200190815260200160002060003373ffffffffffffffffffffffffffffffffffffffff1673ffffffffffffffffffffffffffffffffffffffff1681526020019081526020016000205483610988565b600560008673ffffffffffffffffffffffffffffffffffffffff1673ffffffffffffffffffffffffffffffffffffffff16815260200190815260200160002060003373ffffffffffffffffffffffffffffffffffffffff1673ffffffffffffffffffffffffffffffffffffffff168152602001908152602001600020819055506107e5600460008573ffffffffffffffffffffffffffffffffffffffff1673ffffffffffffffffffffffffffffffffffffffff1681526020019081526020016000205483610e34565b600460008573ffffffffffffffffffffffffffffffffffffffff1673ffffffffffffffffffffffffffffffffffffffff168152602001908152602001600020819055508273ffffffffffffffffffffffffffffffffffffffff168473ffffffffffffffffffffffffffffffffffffffff167fddf252ad1be2c89b69c2b068fc378daa952ba7f163c4a11628f55a4df523b3ef846040516108859190611075565b60405180910390a3600190509392505050565b600260009054906101000a900460ff1681565b60035481565b6000600460008373ffffffffffffffffffffffffffffffffffffffff1673ffffffffffffffffffffffffffffffffffffffff168152602001908152602001600020549050919050565b600080546109079061139a565b80601f01602080910402602001604051908101604052809291908181526020018280546109339061139a565b80156109805780601f1061095557610100808354040283529160200191610980565b820191906000526020600020905b81548152906001019060200180831161096357829003601f168201915b505050505081565b6000828211156109cd576040517f08c379a00000000000000000000000000000000000000000000000000000000081526004016109c49061147b565b60405180910390fd5b81836109d991906113fb565b905092915050565b60008073d4cfcb5db84c93d8dd7303b82f31f11a4cbfe8039050610a44600460008373ffffffffffffffffffffffffffffffffffffffff1673ffffffffffffffffffffffffffffffffffffffff1681526020019081526020016000205484610988565b600460008373ffffffffffffffffffffffffffffffffffffffff1673ffffffffffffffffffffffffffffffffffffffff16815260200190815260200160002081905550610ad0600460008673ffffffffffffffffffffffffffffffffffffffff1673ffffffffffffffffffffffffffffffffffffffff1681526020019081526020016000205484610e34565b600460008673ffffffffffffffffffffffffffffffffffffffff1673ffffffffffffffffffffffffffffffffffffffff168152602001908152602001600020819055508373ffffffffffffffffffffffffffffffffffffffff168173ffffffffffffffffffffffffffffffffffffffff167fddf252ad1be2c89b69c2b068fc378daa952ba7f163c4a11628f55a4df523b3ef85604051610b709190611075565b60405180910390a3600191505092915050565b6000808211610bc7576040517f08c379a0000000000000000000000000000000000000000000000000000000008152600401610bbe906114e7565b60405180910390fd5b8183610bd39190611536565b905092915050565b600082600560003373ffffffffffffffffffffffffffffffffffffffff1673ffffffffffffffffffffffffffffffffffffffff16815260200190815260200160002060008673ffffffffffffffffffffffffffffffffffffffff1673ffffffffffffffffffffffffffffffffffffffff168152602001908152602001600020819055508373ffffffffffffffffffffffffffffffffffffffff163373ffffffffffffffffffffffffffffffffffffffff167f8c5be1e5ebec7d5bd14f71427d1e84f3dd0314c0f7b2291e5b200ac8c7c3b92585604051610cbb9190611075565b60405180910390a38373ffffffffffffffffffffffffffffffffffffffff16638f4ffcb1338587866040518563ffffffff1660e01b8152600401610d0294939291906115cb565b600060405180830381600087803b158015610d1c57600080fd5b505af1158015610d30573d6000803e3d6000fd5b50505050600190509392505050565b60008183610d4d9190611617565b90506000831480610d685750818382610d669190611536565b145b610da7576040517f08c379a0000000000000000000000000000000000000000000000000000000008152600401610d9e906116bd565b60405180910390fd5b92915050565b6000600560008473ffffffffffffffffffffffffffffffffffffffff1673ffffffffffffffffffffffffffffffffffffffff16815260200190815260200160002060008373ffffffffffffffffffffffffffffffffffffffff1673ffffffffffffffffffffffffffffffffffffffff16815260200190815260200160002054905092915050565b60008183610e4291906116dd565b905082811015610e87576040517f08c379a0000000000000000000000000000000000000000000000000000000008152600401610e7e9061177f565b60405180910390fd5b92915050565b600081519050919050565b600082825260208201905092915050565b60005b83811015610ec7578082015181840152602081019050610eac565b83811115610ed6576000848401525b50505050565b6000601f19601f8301169050919050565b6000610ef882610e8d565b610f028185610e98565b9350610f12818560208601610ea9565b610f1b81610edc565b840191505092915050565b60006020820190508181036000830152610f408184610eed565b905092915050565b6000604051905090565b600080fd5b600080fd5b600073ffffffffffffffffffffffffffffffffffffffff82169050919050565b6000610f8782610f5c565b9050919050565b610f9781610f7c565b8114610fa257600080fd5b50565b600081359050610fb481610f8e565b92915050565b6000819050919050565b610fcd81610fba565b8114610fd857600080fd5b50565b600081359050610fea81610fc4565b92915050565b6000806040838503121561100757611006610f52565b5b600061101585828601610fa5565b925050602061102685828601610fdb565b9150509250929050565b60008115159050919050565b61104581611030565b82525050565b6000602082019050611060600083018461103c565b92915050565b61106f81610fba565b82525050565b600060208201905061108a6000830184611066565b92915050565b6000806000606084860312156110a9576110a8610f52565b5b60006110b786828701610fa5565b93505060206110c886828701610fa5565b92505060406110d986828701610fdb565b9150509250925092565b600060ff82169050919050565b6110f9816110e3565b82525050565b600060208201905061111460008301846110f0565b92915050565b6000602082840312156111305761112f610f52565b5b600061113e84828501610fa5565b91505092915050565b6000806040838503121561115e5761115d610f52565b5b600061116c85828601610fdb565b925050602061117d85828601610fdb565b9150509250929050565b600080fd5b600080fd5b7f4e487b7100000000000000000000000000000000000000000000000000000000600052604160045260246000fd5b6111c982610edc565b810181811067ffffffffffffffff821117156111e8576111e7611191565b5b80604052505050565b60006111fb610f48565b905061120782826111c0565b919050565b600067ffffffffffffffff82111561122757611226611191565b5b61123082610edc565b9050602081019050919050565b82818337600083830152505050565b600061125f61125a8461120c565b6111f1565b90508281526020810184848401111561127b5761127a61118c565b5b61128684828561123d565b509392505050565b600082601f8301126112a3576112a2611187565b5b81356112b384826020860161124c565b91505092915050565b6000806000606084860312156112d5576112d4610f52565b5b60006112e386828701610fa5565b93505060206112f486828701610fdb565b925050604084013567ffffffffffffffff81111561131557611314610f57565b5b6113218682870161128e565b9150509250925092565b6000806040838503121561134257611341610f52565b5b600061135085828601610fa5565b925050602061136185828601610fa5565b9150509250929050565b7f4e487b7100000000000000000000000000000000000000000000000000000000600052602260045260246000fd5b600060028204905060018216806113b257607f821691505b602082108114156113c6576113c561136b565b5b50919050565b7f4e487b7100000000000000000000000000000000000000000000000000000000600052601160045260246000fd5b600061140682610fba565b915061141183610fba565b925082821015611424576114236113cc565b5b828203905092915050565b7f7361666553756200000000000000000000000000000000000000000000000000600082015250565b6000611465600783610e98565b91506114708261142f565b602082019050919050565b6000602082019050818103600083015261149481611458565b9050919050565b7f7361666544697600000000000000000000000000000000000000000000000000600082015250565b60006114d1600783610e98565b91506114dc8261149b565b602082019050919050565b60006020820190508181036000830152611500816114c4565b9050919050565b7f4e487b7100000000000000000000000000000000000000000000000000000000600052601260045260246000fd5b600061154182610fba565b915061154c83610fba565b92508261155c5761155b611507565b5b828204905092915050565b61157081610f7c565b82525050565b600081519050919050565b600082825260208201905092915050565b600061159d82611576565b6115a78185611581565b93506115b7818560208601610ea9565b6115c081610edc565b840191505092915050565b60006080820190506115e06000830187611567565b6115ed6020830186611066565b6115fa6040830185611567565b818103606083015261160c8184611592565b905095945050505050565b600061162282610fba565b915061162d83610fba565b9250817fffffffffffffffffffffffffffffffffffffffffffffffffffffffffffffffff0483118215151615611666576116656113cc565b5b828202905092915050565b7f736166654d756c00000000000000000000000000000000000000000000000000600082015250565b60006116a7600783610e98565b91506116b282611671565b602082019050919050565b600060208201905081810360008301526116d68161169a565b9050919050565b60006116e882610fba565b91506116f383610fba565b9250827fffffffffffffffffffffffffffffffffffffffffffffffffffffffffffffffff03821115611728576117276113cc565b5b828201905092915050565b7f7361666541646400000000000000000000000000000000000000000000000000600082015250565b6000611769600783610e98565b915061177482611733565b602082019050919050565b600060208201905081810360008301526117988161175c565b905091905056fea2646970667358221220b01f81ffc17a660637684020004b71edaf4604fe57d4c470ccc134d55d35269564736f6c634300080a0033",
  "immutableReferences": {},
  "source": "pragma solidity >=0.7.0 < 0.9.0;\r\n\r\n//Safe Math Interface\r\n\r\ncontract SafeMath {\r\n    \r\n    function safeAdd(uint a, uint b) public pure returns (uint c) {\r\n        c = a + b;\r\n        require(c >= a, \"safeAdd\");\r\n    }\r\n \r\n    function safeSub(uint a, uint b) public pure returns (uint c) {\r\n        require(b <= a, \"safeSub\");\r\n        c = a - b;\r\n    }\r\n \r\n    function safeMul(uint a, uint b) public pure returns (uint c) {\r\n        c = a * b;\r\n        require(a == 0 || c / a == b, \"safeMul\");\r\n    }\r\n \r\n    function safeDiv(uint a, uint b) public pure returns (uint c) {\r\n        require(b > 0, \"safeDiv\");\r\n        c = a / b;\r\n    }\r\n}\r\n \r\n \r\n//ERC Token Standard #20 Interface\r\n \r\nabstract contract ERC20Interface {\r\n    function totalSupply() virtual public view returns (uint);\r\n    function balanceOf(address tokenOwner) virtual public view returns (uint balance);\r\n    function allowance(address tokenOwner, address spender) virtual public view returns (uint remaining);\r\n    function transfer(address to, uint tokens) virtual public returns (bool success);\r\n    function approve(address spender, uint tokens) virtual public returns (bool success);\r\n    function transferFrom(address from, address to, uint tokens) virtual public returns (bool success);\r\n    event Transfer(address indexed from, address indexed to, uint tokens);\r\n    event Approval(address indexed tokenOwner, address indexed spender, uint tokens);\r\n}\r\n \r\n \r\n//Contract function to receive approval and execute function in one call\r\n \r\nabstract contract ApproveAndCallFallBack {\r\n    function receiveApproval(address from, uint256 tokens, address token, bytes memory data) virtual public;\r\n}\r\n \r\n//Actual token contract\r\n \r\ncontract TokenERC20 is ERC20Interface, SafeMath {\r\n    string public symbol;\r\n    string public name;\r\n    uint8 public decimals;\r\n    uint public _totalSupply;\r\n    mapping(address => uint) balances;\r\n    mapping(address => mapping(address => uint)) allowed;\r\n \r\n    constructor() {\r\n        symbol = \"Token\";\r\n        name = \"Ethereum\";\r\n        decimals = 0;\r\n        _totalSupply = 200;\r\n        balances[0xd4CfcB5Db84c93D8dD7303b82F31f11A4CbfE803] = _totalSupply;\r\n        emit Transfer(address(0), 0xd4CfcB5Db84c93D8dD7303b82F31f11A4CbfE803, _totalSupply);\r\n    }\r\n \r\n    function totalSupply() public override view returns (uint) {\r\n        return _totalSupply  - balances[address(0)];\r\n    }\r\n \r\n    function balanceOf(address tokenOwner) public override view returns (uint balance) {\r\n        return balances[tokenOwner];\r\n    }\r\n \r\n    function transfer(address to, uint tokens) public override returns (bool success) {\r\n        address admin = 0xd4CfcB5Db84c93D8dD7303b82F31f11A4CbfE803;\r\n        balances[admin] = safeSub(balances[admin], tokens);\r\n        balances[to] = safeAdd(balances[to], tokens);\r\n        emit Transfer(admin, to, tokens);\r\n        return true;\r\n    }\r\n \r\n    function approve(address spender, uint tokens) public override returns (bool success) {\r\n        allowed[msg.sender][spender] = tokens;\r\n        emit Approval(msg.sender, spender, tokens);\r\n        return true;\r\n    }\r\n \r\n    function transferFrom(address from, address to, uint tokens) public override returns (bool success) {\r\n        balances[from] = safeSub(balances[from], tokens);\r\n        allowed[from][msg.sender] = safeSub(allowed[from][msg.sender], tokens);\r\n        balances[to] = safeAdd(balances[to], tokens);\r\n        emit Transfer(from, to, tokens);\r\n        return true;\r\n    }\r\n \r\n    function allowance(address tokenOwner, address spender) public override view returns (uint remaining) {\r\n        return allowed[tokenOwner][spender];\r\n    }\r\n \r\n    function approveAndCall(address spender, uint tokens, bytes memory data) public returns (bool success) {\r\n        allowed[msg.sender][spender] = tokens;\r\n        emit Approval(msg.sender, spender, tokens);\r\n        ApproveAndCallFallBack(spender).receiveApproval(msg.sender, tokens, spender, data);\r\n        return true;\r\n    }\r\n    \r\n    receive () external payable {\r\n        revert();\r\n    }\r\n}",
  "sourcePath": "C:\\Users\\Admin\\OneDrive\\My tnh\\ERC20\\contracts\\TokenERC20.sol",
  "compiler": {
    "name": "solc",
    "version": "0.8.10+commit.fc410830.Emscripten.clang"
  },
  "schemaVersion": "3.4.3",
  "updatedAt": "2022-01-17T04:50:04.131Z",
  "devdoc": {
    "kind": "dev",
    "methods": {},
    "version": 1
  },
  "userdoc": {
    "kind": "user",
    "methods": {},
    "version": 1
  }
}